{
  "contractName": "certificate",
  "abi": [
    {
      "constant": true,
      "inputs": [
        {
          "name": "",
          "type": "uint256"
        }
      ],
      "name": "tasks",
      "outputs": [
        {
          "name": "id",
          "type": "uint256"
        },
        {
          "name": "content",
          "type": "string"
        },
        {
          "name": "completed",
          "type": "bool"
        }
      ],
      "payable": false,
      "stateMutability": "view",
      "type": "function",
      "signature": "0x8d977672"
    },
    {
      "constant": true,
      "inputs": [],
      "name": "taskCount",
      "outputs": [
        {
          "name": "",
          "type": "uint256"
        }
      ],
      "payable": false,
      "stateMutability": "view",
      "type": "function",
      "signature": "0xb6cb58a5"
    },
    {
      "inputs": [],
      "payable": false,
      "stateMutability": "nonpayable",
      "type": "constructor",
      "signature": "constructor"
    },
    {
      "anonymous": false,
      "inputs": [
        {
          "indexed": false,
          "name": "id",
          "type": "uint256"
        },
        {
          "indexed": false,
          "name": "content",
          "type": "string"
        },
        {
          "indexed": false,
          "name": "completed",
          "type": "bool"
        }
      ],
      "name": "TaskCreated",
      "type": "event",
      "signature": "0x05d0fb833127fc08168556d0e7ca9554fc3f6bc843b3b7d2bf1c35aea6bab660"
    },
    {
      "anonymous": false,
      "inputs": [
        {
          "indexed": false,
          "name": "id",
          "type": "uint256"
        },
        {
          "indexed": false,
          "name": "completed",
          "type": "bool"
        }
      ],
      "name": "TaskCompleted",
      "type": "event",
      "signature": "0xe21fa966ca5cd02748c0752352d18c48165e61cb55b4c29cccf924b5a95fcff1"
    },
    {
      "constant": false,
      "inputs": [
        {
          "name": "_content",
          "type": "string"
        }
      ],
      "name": "addTask",
      "outputs": [],
      "payable": false,
      "stateMutability": "nonpayable",
      "type": "function",
      "signature": "0x67238562"
    },
    {
      "constant": false,
      "inputs": [
        {
          "name": "_id",
          "type": "uint256"
        }
      ],
      "name": "toggleCompleted",
      "outputs": [],
      "payable": false,
      "stateMutability": "nonpayable",
      "type": "function",
      "signature": "0x455f5024"
    }
  ],
  "bytecode": "0x60806040526000805534801561001457600080fd5b5060408051808201909152600581527f7461736b31000000000000000000000000000000000000000000000000000000602082015261005b90640100000000610060810204565b610167565b60008054600190810180835560408051606081018252828152602080820187815282840187905293865284815291909420845181559151805192936100ad939085019291909101906100cc565b50604091909101516002909101805460ff191691151591909117905550565b828054600181600116156101000203166002900490600052602060002090601f016020900481019282601f1061010d57805160ff191683800117855561013a565b8280016001018555821561013a579182015b8281111561013a57825182559160200191906001019061011f565b5061014692915061014a565b5090565b61016491905b808211156101465760008155600101610150565b90565b61058c806101766000396000f3fe6080604052600436106100615763ffffffff7c0100000000000000000000000000000000000000000000000000000000600035041663455f5024811461006657806367238562146100925780638d97767214610145578063b6cb58a5146101f9575b600080fd5b34801561007257600080fd5b506100906004803603602081101561008957600080fd5b5035610220565b005b34801561009e57600080fd5b50610090600480360360208110156100b557600080fd5b8101906020810181356401000000008111156100d057600080fd5b8201836020820111156100e257600080fd5b8035906020019184600183028401116401000000008311171561010457600080fd5b91908080601f016020809104026020016040519081016040528093929190818152602001838380828437600092019190915250929550610380945050505050565b34801561015157600080fd5b5061016f6004803603602081101561016857600080fd5b50356103ec565b604051808481526020018060200183151515158152602001828103825284818151815260200191508051906020019080838360005b838110156101bc5781810151838201526020016101a4565b50505050905090810190601f1680156101e95780820380516001836020036101000a031916815260200191505b5094505050505060405180910390f35b34801561020557600080fd5b5061020e61049b565b60408051918252519081900360200190f35b6102286104a1565b60008281526001602081815260409283902083516060810185528154815281840180548651600296821615610100026000190190911695909504601f810185900485028601850190965285855290949193858401939092908301828280156102d15780601f106102a6576101008083540402835291602001916102d1565b820191906000526020600020905b8154815290600101906020018083116102b457829003601f168201915b50505091835250506002919091015460ff16151560209182015260408083018051159052600085815260018084529190208351815583830151805194955085949193610322938501929101906104c5565b50604091820151600291909101805460ff1916911515919091179055818101518151848152901515602082015281517fe21fa966ca5cd02748c0752352d18c48165e61cb55b4c29cccf924b5a95fcff1929181900390910190a15050565b60008054600190810180835560408051606081018252828152602080820187815282840187905293865284815291909420845181559151805192936103cd939085019291909101906104c5565b50604091909101516002909101805460ff191691151591909117905550565b600160208181526000928352604092839020805481840180548651600296821615610100026000190190911695909504601f810185900485028601850190965285855290949193929091908301828280156104885780601f1061045d57610100808354040283529160200191610488565b820191906000526020600020905b81548152906001019060200180831161046b57829003601f168201915b5050506002909301549192505060ff1683565b60005481565b60606040519081016040528060008152602001606081526020016000151581525090565b828054600181600116156101000203166002900490600052602060002090601f016020900481019282601f1061050657805160ff1916838001178555610533565b82800160010185558215610533579182015b82811115610533578251825591602001919060010190610518565b5061053f929150610543565b5090565b61055d91905b8082111561053f5760008155600101610549565b9056fea165627a7a72305820dcb22d29f026f940405a78d16dd7ac9c29537f357226dcce851927e3bd817f170029",
  "source": "pragma solidity ^0.5.0;\r\ncontract certificate {\r\n    uint public taskCount=0;\r\n    struct task{\r\n        uint id;\r\n        string content;\r\n        bool completed;\r\n    }\r\n    mapping(uint => task) public tasks;\r\n    constructor() public{\r\n        addTask(\"task1\");\r\n    }\r\n    event TaskCreated(\r\n    uint id,\r\n    string content,\r\n    bool completed\r\n  );\r\n\r\n  event TaskCompleted(\r\n    uint id,\r\n    bool completed\r\n  );\r\n    function addTask(string memory _content) public{\r\n        taskCount ++;\r\n        tasks[taskCount] = task(taskCount,_content,false);\r\n    }\r\n  function toggleCompleted(uint _id) public {\r\n    task memory _task = tasks[_id];\r\n    _task.completed = !_task.completed;\r\n    tasks[_id] = _task;\r\n    emit TaskCompleted(_id, _task.completed);\r\n  }\r\n\r\n}",
  "sourcePath": "C:/Users/DELL/Desktop/truffle/contracts/certificate.sol",
  "compiler": {
    "name": "solc",
    "version": "0.5.0+commit.1d4f565a.Emscripten.clang"
  },
  "schemaVersion": "3.0.1",
  "updatedAt": "2022-08-04T12:32:17.050Z",
  "devdoc": {
    "methods": {}
  },
  "userdoc": {
    "methods": {}
  }
}